:10E00000B240805A20013F4094E13E4000023D4032
:10E0100004020D9E0524FE4F00001E530E9DFB2B97
:10E020003F4004023D4014020D9F0524CF430000F1
:10E030001F530F9DFB2B3040BEE030403EE00013ED
:10E04000F2D00F001B00D2D37000F2D01400700089
:10E05000F2D080FF7100C2437200C2437500E243F8
:10E060007400C2437300F2D040000400D2C37000B9
:10E07000F2D04000000030415F423700F2433700E9
:10E08000B240F000A001B2400202A201F240100032
:10E090008000F24011008100F24012008200F24044
:10E0A00013008300F24014008400F2401500850044
:10E0B000F24016008600F24097FF87003041314061
:10E0C0000003B240805A2001B01240E0B01278E064
:10E0D0003F4000361F83FE23A2D3A001F240AAFFD7
:10E0E0007700924300021E42020292D3A0011F4217
:10E0F000A4014F93FC379E42400100009E42420122
:10E1000002009E42440104009E42460106009E42D7
:10E11000480108009E424A010A009E424C010C0040
:10E120009E424E010E008243000232D018009243FC
:10E130000002DB3F304090E10F12C2930200FD3736
:10E14000829300020424F240EFFF77001F3C5F42FD
:10E1500076007FF30F9306383F90100010383F9001
:10E16000100006245F4276005F53C24F77000E3CDA
:10E17000F240EFFF7700B1C010000200073C5F42A1
:10E1800076007FF33F500402E24F77003F410013D7
:04E1900002DFFE3F6D
:04E194000100040280
:10FFE0003AE03AE03AE03AE03AE03AE03AE03AE041
:10FFF0003AE038E13AE03AE03AE03AE03AE000E06C
:040000030000E00019
:00000001FF
